{
  "contractName": "IndexerME",
  "abi": [
    {
      "inputs": [
        {
          "internalType": "address",
          "name": "PolygonME",
          "type": "address"
        }
      ],
      "stateMutability": "nonpayable",
      "type": "constructor"
    },
    {
      "anonymous": false,
      "inputs": [
        {
          "indexed": true,
          "internalType": "address",
          "name": "previousOwner",
          "type": "address"
        },
        {
          "indexed": true,
          "internalType": "address",
          "name": "newOwner",
          "type": "address"
        }
      ],
      "name": "OwnershipTransferred",
      "type": "event"
    },
    {
      "inputs": [],
      "name": "owner",
      "outputs": [
        {
          "internalType": "address",
          "name": "",
          "type": "address"
        }
      ],
      "stateMutability": "view",
      "type": "function",
      "constant": true
    },
    {
      "inputs": [],
      "name": "renounceOwnership",
      "outputs": [],
      "stateMutability": "nonpayable",
      "type": "function"
    },
    {
      "inputs": [
        {
          "internalType": "address",
          "name": "newOwner",
          "type": "address"
        }
      ],
      "name": "transferOwnership",
      "outputs": [],
      "stateMutability": "nonpayable",
      "type": "function"
    },
    {
      "inputs": [
        {
          "internalType": "string",
          "name": "_name",
          "type": "string"
        },
        {
          "internalType": "string",
          "name": "_gate",
          "type": "string"
        }
      ],
      "name": "returnOwner",
      "outputs": [
        {
          "internalType": "address",
          "name": "",
          "type": "address"
        }
      ],
      "stateMutability": "view",
      "type": "function",
      "constant": true
    },
    {
      "inputs": [
        {
          "internalType": "string",
          "name": "_name",
          "type": "string"
        },
        {
          "internalType": "string",
          "name": "_gate",
          "type": "string"
        }
      ],
      "name": "returnAddress",
      "outputs": [
        {
          "internalType": "address",
          "name": "",
          "type": "address"
        }
      ],
      "stateMutability": "view",
      "type": "function",
      "constant": true
    },
    {
      "inputs": [
        {
          "internalType": "string",
          "name": "_name",
          "type": "string"
        },
        {
          "internalType": "string",
          "name": "_gate",
          "type": "string"
        }
      ],
      "name": "returnIdentity",
      "outputs": [
        {
          "internalType": "string",
          "name": "",
          "type": "string"
        }
      ],
      "stateMutability": "view",
      "type": "function",
      "constant": true
    }
  ],
  "bytecode": "0x60806040523480156200001157600080fd5b506040516200125b3803806200125b8339818101604052810190620000379190620001d5565b620000576200004b6200009f60201b60201c565b620000a760201b60201c565b80600160006101000a81548173ffffffffffffffffffffffffffffffffffffffff021916908373ffffffffffffffffffffffffffffffffffffffff1602179055505062000207565b600033905090565b60008060009054906101000a900473ffffffffffffffffffffffffffffffffffffffff169050816000806101000a81548173ffffffffffffffffffffffffffffffffffffffff021916908373ffffffffffffffffffffffffffffffffffffffff1602179055508173ffffffffffffffffffffffffffffffffffffffff168173ffffffffffffffffffffffffffffffffffffffff167f8be0079c531659141344cd1fd0a4f28419497f9722a3daafe3b4186f6b6457e060405160405180910390a35050565b600080fd5b600073ffffffffffffffffffffffffffffffffffffffff82169050919050565b60006200019d8262000170565b9050919050565b620001af8162000190565b8114620001bb57600080fd5b50565b600081519050620001cf81620001a4565b92915050565b600060208284031215620001ee57620001ed6200016b565b5b6000620001fe84828501620001be565b91505092915050565b61104480620002176000396000f3fe608060405234801561001057600080fd5b50600436106100625760003560e01c806366d56f3814610067578063715018a6146100975780637532834d146100a15780638da5cb5b146100d1578063f2fde38b146100ef578063f7ca14531461010b575b600080fd5b610081600480360381019061007c9190610a68565b61013b565b60405161008e9190610b21565b60405180910390f35b61009f610303565b005b6100bb60048036038101906100b69190610a68565b61038b565b6040516100c89190610bc4565b60405180910390f35b6100d9610559565b6040516100e69190610b21565b60405180910390f35b61010960048036038101906101049190610c12565b610582565b005b61012560048036038101906101209190610a68565b61067a565b6040516101329190610b21565b60405180910390f35b600080600160009054906101000a900473ffffffffffffffffffffffffffffffffffffffff1673ffffffffffffffffffffffffffffffffffffffff1663a47cf974858560405160200161018f929190610cc7565b6040516020818303038152906040526040518263ffffffff1660e01b81526004016101ba9190610bc4565b60206040518083038186803b1580156101d257600080fd5b505afa1580156101e6573d6000803e3d6000fd5b505050506040513d601f19601f8201168201806040525081019061020a9190610d2c565b90506000811161024f576040517f08c379a000000000000000000000000000000000000000000000000000000000815260040161024690610dcb565b60405180910390fd5b600160009054906101000a900473ffffffffffffffffffffffffffffffffffffffff1673ffffffffffffffffffffffffffffffffffffffff16638d80c922826040518263ffffffff1660e01b81526004016102aa9190610dfa565b60206040518083038186803b1580156102c257600080fd5b505afa1580156102d6573d6000803e3d6000fd5b505050506040513d601f19601f820116820180604052508101906102fa9190610e2a565b91505092915050565b61030b610842565b73ffffffffffffffffffffffffffffffffffffffff16610329610559565b73ffffffffffffffffffffffffffffffffffffffff161461037f576040517f08c379a000000000000000000000000000000000000000000000000000000000815260040161037690610ea3565b60405180910390fd5b610389600061084a565b565b60606000600160009054906101000a900473ffffffffffffffffffffffffffffffffffffffff1673ffffffffffffffffffffffffffffffffffffffff1663a47cf97485856040516020016103e0929190610cc7565b6040516020818303038152906040526040518263ffffffff1660e01b815260040161040b9190610bc4565b60206040518083038186803b15801561042357600080fd5b505afa158015610437573d6000803e3d6000fd5b505050506040513d601f19601f8201168201806040525081019061045b9190610d2c565b9050600081116104a0576040517f08c379a000000000000000000000000000000000000000000000000000000000815260040161049790610dcb565b60405180910390fd5b600160009054906101000a900473ffffffffffffffffffffffffffffffffffffffff1673ffffffffffffffffffffffffffffffffffffffff1663c87b56dd826040518263ffffffff1660e01b81526004016104fb9190610dfa565b60006040518083038186803b15801561051357600080fd5b505afa158015610527573d6000803e3d6000fd5b505050506040513d6000823e3d601f19601f820116820180604052508101906105509190610f33565b91505092915050565b60008060009054906101000a900473ffffffffffffffffffffffffffffffffffffffff16905090565b61058a610842565b73ffffffffffffffffffffffffffffffffffffffff166105a8610559565b73ffffffffffffffffffffffffffffffffffffffff16146105fe576040517f08c379a00000000000000000000000000000000000000000000000000000000081526004016105f590610ea3565b60405180910390fd5b600073ffffffffffffffffffffffffffffffffffffffff168173ffffffffffffffffffffffffffffffffffffffff16141561066e576040517f08c379a000000000000000000000000000000000000000000000000000000000815260040161066590610fee565b60405180910390fd5b6106778161084a565b50565b600080600160009054906101000a900473ffffffffffffffffffffffffffffffffffffffff1673ffffffffffffffffffffffffffffffffffffffff1663a47cf97485856040516020016106ce929190610cc7565b6040516020818303038152906040526040518263ffffffff1660e01b81526004016106f99190610bc4565b60206040518083038186803b15801561071157600080fd5b505afa158015610725573d6000803e3d6000fd5b505050506040513d601f19601f820116820180604052508101906107499190610d2c565b90506000811161078e576040517f08c379a000000000000000000000000000000000000000000000000000000000815260040161078590610dcb565b60405180910390fd5b600160009054906101000a900473ffffffffffffffffffffffffffffffffffffffff1673ffffffffffffffffffffffffffffffffffffffff16636352211e826040518263ffffffff1660e01b81526004016107e99190610dfa565b60206040518083038186803b15801561080157600080fd5b505afa158015610815573d6000803e3d6000fd5b505050506040513d601f19601f820116820180604052508101906108399190610e2a565b91505092915050565b600033905090565b60008060009054906101000a900473ffffffffffffffffffffffffffffffffffffffff169050816000806101000a81548173ffffffffffffffffffffffffffffffffffffffff021916908373ffffffffffffffffffffffffffffffffffffffff1602179055508173ffffffffffffffffffffffffffffffffffffffff168173ffffffffffffffffffffffffffffffffffffffff167f8be0079c531659141344cd1fd0a4f28419497f9722a3daafe3b4186f6b6457e060405160405180910390a35050565b6000604051905090565b600080fd5b600080fd5b600080fd5b600080fd5b6000601f19601f8301169050919050565b7f4e487b7100000000000000000000000000000000000000000000000000000000600052604160045260246000fd5b6109758261092c565b810181811067ffffffffffffffff821117156109945761099361093d565b5b80604052505050565b60006109a761090e565b90506109b3828261096c565b919050565b600067ffffffffffffffff8211156109d3576109d261093d565b5b6109dc8261092c565b9050602081019050919050565b82818337600083830152505050565b6000610a0b610a06846109b8565b61099d565b905082815260208101848484011115610a2757610a26610927565b5b610a328482856109e9565b509392505050565b600082601f830112610a4f57610a4e610922565b5b8135610a5f8482602086016109f8565b91505092915050565b60008060408385031215610a7f57610a7e610918565b5b600083013567ffffffffffffffff811115610a9d57610a9c61091d565b5b610aa985828601610a3a565b925050602083013567ffffffffffffffff811115610aca57610ac961091d565b5b610ad685828601610a3a565b9150509250929050565b600073ffffffffffffffffffffffffffffffffffffffff82169050919050565b6000610b0b82610ae0565b9050919050565b610b1b81610b00565b82525050565b6000602082019050610b366000830184610b12565b92915050565b600081519050919050565b600082825260208201905092915050565b60005b83811015610b76578082015181840152602081019050610b5b565b83811115610b85576000848401525b50505050565b6000610b9682610b3c565b610ba08185610b47565b9350610bb0818560208601610b58565b610bb98161092c565b840191505092915050565b60006020820190508181036000830152610bde8184610b8b565b905092915050565b610bef81610b00565b8114610bfa57600080fd5b50565b600081359050610c0c81610be6565b92915050565b600060208284031215610c2857610c27610918565b5b6000610c3684828501610bfd565b91505092915050565b600081905092915050565b6000610c5582610b3c565b610c5f8185610c3f565b9350610c6f818560208601610b58565b80840191505092915050565b7f2e00000000000000000000000000000000000000000000000000000000000000600082015250565b6000610cb1600183610c3f565b9150610cbc82610c7b565b600182019050919050565b6000610cd38285610c4a565b9150610cde82610ca4565b9150610cea8284610c4a565b91508190509392505050565b6000819050919050565b610d0981610cf6565b8114610d1457600080fd5b50565b600081519050610d2681610d00565b92915050565b600060208284031215610d4257610d41610918565b5b6000610d5084828501610d17565b91505092915050565b7f496e64657865724d453a2054686973206e616d6520646f65736e27742065786960008201527f7374732e00000000000000000000000000000000000000000000000000000000602082015250565b6000610db5602483610b47565b9150610dc082610d59565b604082019050919050565b60006020820190508181036000830152610de481610da8565b9050919050565b610df481610cf6565b82525050565b6000602082019050610e0f6000830184610deb565b92915050565b600081519050610e2481610be6565b92915050565b600060208284031215610e4057610e3f610918565b5b6000610e4e84828501610e15565b91505092915050565b7f4f776e61626c653a2063616c6c6572206973206e6f7420746865206f776e6572600082015250565b6000610e8d602083610b47565b9150610e9882610e57565b602082019050919050565b60006020820190508181036000830152610ebc81610e80565b9050919050565b6000610ed6610ed1846109b8565b61099d565b905082815260208101848484011115610ef257610ef1610927565b5b610efd848285610b58565b509392505050565b600082601f830112610f1a57610f19610922565b5b8151610f2a848260208601610ec3565b91505092915050565b600060208284031215610f4957610f48610918565b5b600082015167ffffffffffffffff811115610f6757610f6661091d565b5b610f7384828501610f05565b91505092915050565b7f4f776e61626c653a206e6577206f776e657220697320746865207a65726f206160008201527f6464726573730000000000000000000000000000000000000000000000000000602082015250565b6000610fd8602683610b47565b9150610fe382610f7c565b604082019050919050565b6000602082019050818103600083015261100781610fcb565b905091905056fea26469706673582212205432eff8ac185957f3c3254de50a46e4281887d820b2d7e34410ef0382298a0464736f6c63430008090033",
  "immutableReferences": {},
  "source": "// SPDX-License-Identifier: MIT\npragma solidity ^0.8.6;\n\nimport \"@openzeppelin/contracts/access/Ownable.sol\";\nimport \"../interfaces/IME.sol\";\n\n/**\n * @title IndexerME\n * IndexerME - Searcher for PolygonME compatibility with Metamask\n */\ncontract IndexerME is Ownable {\n\n    IME private _me;\n\n    constructor (address PolygonME) {\n        _me = IME(PolygonME);\n    }\n\n    function returnOwner(string memory _name, string memory _gate) public view returns (address){\n        uint256 tknId = _me._nameToTokenId(string(abi.encodePacked(_name, '.', _gate)));\n        require(tknId > 0, \"IndexerME: This name doesn't exists.\");\n        return _me.ownerOf(tknId);\n    }\n\n    function returnAddress(string memory _name, string memory _gate) public view returns (address){\n        uint256 tknId = _me._nameToTokenId(string(abi.encodePacked(_name, '.', _gate)));\n        require(tknId > 0, \"IndexerME: This name doesn't exists.\");\n        return _me.getAddressById(tknId);\n    }\n\n    function returnIdentity(string memory _name, string memory _gate) public view returns (string memory){\n        uint256 tknId = _me._nameToTokenId(string(abi.encodePacked(_name, '.', _gate)));\n        require(tknId > 0, \"IndexerME: This name doesn't exists.\");\n        return _me.tokenURI(tknId);\n    }\n\n}\n",
  "sourcePath": "/home/turinglabs/GIT/NFT-STUDIO/polygon-id/indexer/contracts/IndexerME.sol",
  "compiler": {
    "name": "solc",
    "version": "0.8.9+commit.e5eed63a.Emscripten.clang"
  },
  "schemaVersion": "3.3.4",
  "updatedAt": "2021-10-15T13:22:25.578Z",
  "networkType": "ethereum",
  "devdoc": {
    "kind": "dev",
    "methods": {
      "owner()": {
        "details": "Returns the address of the current owner."
      },
      "renounceOwnership()": {
        "details": "Leaves the contract without owner. It will not be possible to call `onlyOwner` functions anymore. Can only be called by the current owner. NOTE: Renouncing ownership will leave the contract without an owner, thereby removing any functionality that is only available to the owner."
      },
      "transferOwnership(address)": {
        "details": "Transfers ownership of the contract to a new account (`newOwner`). Can only be called by the current owner."
      }
    },
    "title": "IndexerME IndexerME - Searcher for PolygonME compatibility with Metamask",
    "version": 1
  },
  "userdoc": {
    "kind": "user",
    "methods": {},
    "version": 1
  }
}