{
  "contractName": "PolygonME",
  "abi": [
    {
      "inputs": [],
      "stateMutability": "nonpayable",
      "type": "constructor"
    },
    {
      "anonymous": false,
      "inputs": [
        {
          "indexed": true,
          "internalType": "address",
          "name": "owner",
          "type": "address"
        },
        {
          "indexed": true,
          "internalType": "address",
          "name": "approved",
          "type": "address"
        },
        {
          "indexed": true,
          "internalType": "uint256",
          "name": "tokenId",
          "type": "uint256"
        }
      ],
      "name": "Approval",
      "type": "event"
    },
    {
      "anonymous": false,
      "inputs": [
        {
          "indexed": true,
          "internalType": "address",
          "name": "owner",
          "type": "address"
        },
        {
          "indexed": true,
          "internalType": "address",
          "name": "operator",
          "type": "address"
        },
        {
          "indexed": false,
          "internalType": "bool",
          "name": "approved",
          "type": "bool"
        }
      ],
      "name": "ApprovalForAll",
      "type": "event"
    },
    {
      "anonymous": false,
      "inputs": [
        {
          "indexed": true,
          "internalType": "address",
          "name": "previousOwner",
          "type": "address"
        },
        {
          "indexed": true,
          "internalType": "address",
          "name": "newOwner",
          "type": "address"
        }
      ],
      "name": "OwnershipTransferred",
      "type": "event"
    },
    {
      "anonymous": false,
      "inputs": [
        {
          "indexed": true,
          "internalType": "address",
          "name": "from",
          "type": "address"
        },
        {
          "indexed": true,
          "internalType": "address",
          "name": "to",
          "type": "address"
        },
        {
          "indexed": true,
          "internalType": "uint256",
          "name": "tokenId",
          "type": "uint256"
        }
      ],
      "name": "Transfer",
      "type": "event"
    },
    {
      "inputs": [
        {
          "internalType": "string",
          "name": "",
          "type": "string"
        }
      ],
      "name": "_nameToTokenId",
      "outputs": [
        {
          "internalType": "uint256",
          "name": "",
          "type": "uint256"
        }
      ],
      "stateMutability": "view",
      "type": "function",
      "constant": true
    },
    {
      "inputs": [
        {
          "internalType": "string",
          "name": "",
          "type": "string"
        }
      ],
      "name": "_tlds",
      "outputs": [
        {
          "internalType": "bool",
          "name": "",
          "type": "bool"
        }
      ],
      "stateMutability": "view",
      "type": "function",
      "constant": true
    },
    {
      "inputs": [
        {
          "internalType": "address",
          "name": "to",
          "type": "address"
        },
        {
          "internalType": "uint256",
          "name": "tokenId",
          "type": "uint256"
        }
      ],
      "name": "approve",
      "outputs": [],
      "stateMutability": "nonpayable",
      "type": "function"
    },
    {
      "inputs": [
        {
          "internalType": "address",
          "name": "owner",
          "type": "address"
        }
      ],
      "name": "balanceOf",
      "outputs": [
        {
          "internalType": "uint256",
          "name": "",
          "type": "uint256"
        }
      ],
      "stateMutability": "view",
      "type": "function",
      "constant": true
    },
    {
      "inputs": [
        {
          "internalType": "uint256",
          "name": "tokenId",
          "type": "uint256"
        }
      ],
      "name": "getApproved",
      "outputs": [
        {
          "internalType": "address",
          "name": "",
          "type": "address"
        }
      ],
      "stateMutability": "view",
      "type": "function",
      "constant": true
    },
    {
      "inputs": [
        {
          "internalType": "address",
          "name": "owner",
          "type": "address"
        },
        {
          "internalType": "address",
          "name": "operator",
          "type": "address"
        }
      ],
      "name": "isApprovedForAll",
      "outputs": [
        {
          "internalType": "bool",
          "name": "",
          "type": "bool"
        }
      ],
      "stateMutability": "view",
      "type": "function",
      "constant": true
    },
    {
      "inputs": [],
      "name": "name",
      "outputs": [
        {
          "internalType": "string",
          "name": "",
          "type": "string"
        }
      ],
      "stateMutability": "view",
      "type": "function",
      "constant": true
    },
    {
      "inputs": [],
      "name": "owner",
      "outputs": [
        {
          "internalType": "address",
          "name": "",
          "type": "address"
        }
      ],
      "stateMutability": "view",
      "type": "function",
      "constant": true
    },
    {
      "inputs": [
        {
          "internalType": "uint256",
          "name": "tokenId",
          "type": "uint256"
        }
      ],
      "name": "ownerOf",
      "outputs": [
        {
          "internalType": "address",
          "name": "",
          "type": "address"
        }
      ],
      "stateMutability": "view",
      "type": "function",
      "constant": true
    },
    {
      "inputs": [],
      "name": "renounceOwnership",
      "outputs": [],
      "stateMutability": "nonpayable",
      "type": "function"
    },
    {
      "inputs": [
        {
          "internalType": "address",
          "name": "from",
          "type": "address"
        },
        {
          "internalType": "address",
          "name": "to",
          "type": "address"
        },
        {
          "internalType": "uint256",
          "name": "tokenId",
          "type": "uint256"
        }
      ],
      "name": "safeTransferFrom",
      "outputs": [],
      "stateMutability": "nonpayable",
      "type": "function"
    },
    {
      "inputs": [
        {
          "internalType": "address",
          "name": "from",
          "type": "address"
        },
        {
          "internalType": "address",
          "name": "to",
          "type": "address"
        },
        {
          "internalType": "uint256",
          "name": "tokenId",
          "type": "uint256"
        },
        {
          "internalType": "bytes",
          "name": "_data",
          "type": "bytes"
        }
      ],
      "name": "safeTransferFrom",
      "outputs": [],
      "stateMutability": "nonpayable",
      "type": "function"
    },
    {
      "inputs": [
        {
          "internalType": "address",
          "name": "operator",
          "type": "address"
        },
        {
          "internalType": "bool",
          "name": "approved",
          "type": "bool"
        }
      ],
      "name": "setApprovalForAll",
      "outputs": [],
      "stateMutability": "nonpayable",
      "type": "function"
    },
    {
      "inputs": [
        {
          "internalType": "bytes4",
          "name": "interfaceId",
          "type": "bytes4"
        }
      ],
      "name": "supportsInterface",
      "outputs": [
        {
          "internalType": "bool",
          "name": "",
          "type": "bool"
        }
      ],
      "stateMutability": "view",
      "type": "function",
      "constant": true
    },
    {
      "inputs": [],
      "name": "symbol",
      "outputs": [
        {
          "internalType": "string",
          "name": "",
          "type": "string"
        }
      ],
      "stateMutability": "view",
      "type": "function",
      "constant": true
    },
    {
      "inputs": [
        {
          "internalType": "address",
          "name": "from",
          "type": "address"
        },
        {
          "internalType": "address",
          "name": "to",
          "type": "address"
        },
        {
          "internalType": "uint256",
          "name": "tokenId",
          "type": "uint256"
        }
      ],
      "name": "transferFrom",
      "outputs": [],
      "stateMutability": "nonpayable",
      "type": "function"
    },
    {
      "inputs": [
        {
          "internalType": "address",
          "name": "newOwner",
          "type": "address"
        }
      ],
      "name": "transferOwnership",
      "outputs": [],
      "stateMutability": "nonpayable",
      "type": "function"
    },
    {
      "inputs": [],
      "name": "totalSupply",
      "outputs": [
        {
          "internalType": "uint256",
          "name": "",
          "type": "uint256"
        }
      ],
      "stateMutability": "view",
      "type": "function",
      "constant": true
    },
    {
      "inputs": [],
      "name": "contractURI",
      "outputs": [
        {
          "internalType": "string",
          "name": "",
          "type": "string"
        }
      ],
      "stateMutability": "pure",
      "type": "function",
      "constant": true
    },
    {
      "inputs": [
        {
          "internalType": "address",
          "name": "_owner",
          "type": "address"
        }
      ],
      "name": "tokensOfOwner",
      "outputs": [
        {
          "internalType": "uint256[]",
          "name": "ownerTokens",
          "type": "uint256[]"
        }
      ],
      "stateMutability": "view",
      "type": "function",
      "constant": true
    },
    {
      "inputs": [
        {
          "internalType": "string",
          "name": "_name",
          "type": "string"
        }
      ],
      "name": "returnNameID",
      "outputs": [
        {
          "internalType": "uint256",
          "name": "",
          "type": "uint256"
        }
      ],
      "stateMutability": "view",
      "type": "function",
      "constant": true
    },
    {
      "inputs": [
        {
          "internalType": "string",
          "name": "_name",
          "type": "string"
        }
      ],
      "name": "getAddressByName",
      "outputs": [
        {
          "internalType": "address",
          "name": "",
          "type": "address"
        }
      ],
      "stateMutability": "view",
      "type": "function",
      "constant": true
    },
    {
      "inputs": [
        {
          "internalType": "uint256",
          "name": "tknId",
          "type": "uint256"
        }
      ],
      "name": "getAddressById",
      "outputs": [
        {
          "internalType": "address",
          "name": "",
          "type": "address"
        }
      ],
      "stateMutability": "view",
      "type": "function",
      "constant": true
    },
    {
      "inputs": [
        {
          "internalType": "uint256",
          "name": "tokenId",
          "type": "uint256"
        }
      ],
      "name": "tokenURI",
      "outputs": [
        {
          "internalType": "string",
          "name": "",
          "type": "string"
        }
      ],
      "stateMutability": "view",
      "type": "function",
      "constant": true
    },
    {
      "inputs": [
        {
          "internalType": "string",
          "name": "name",
          "type": "string"
        },
        {
          "internalType": "string",
          "name": "tld",
          "type": "string"
        }
      ],
      "name": "mintName",
      "outputs": [],
      "stateMutability": "payable",
      "type": "function",
      "payable": true
    },
    {
      "inputs": [
        {
          "internalType": "uint256",
          "name": "tokenId",
          "type": "uint256"
        },
        {
          "internalType": "address",
          "name": "eth_address",
          "type": "address"
        },
        {
          "internalType": "string",
          "name": "ethereum_address",
          "type": "string"
        },
        {
          "internalType": "string",
          "name": "bitcoin_address",
          "type": "string"
        },
        {
          "internalType": "string",
          "name": "email",
          "type": "string"
        },
        {
          "internalType": "string",
          "name": "url",
          "type": "string"
        },
        {
          "internalType": "string",
          "name": "social",
          "type": "string"
        },
        {
          "internalType": "string",
          "name": "background",
          "type": "string"
        },
        {
          "internalType": "string",
          "name": "color",
          "type": "string"
        },
        {
          "internalType": "string",
          "name": "logo",
          "type": "string"
        },
        {
          "internalType": "string",
          "name": "description",
          "type": "string"
        }
      ],
      "name": "fixDetails",
      "outputs": [],
      "stateMutability": "nonpayable",
      "type": "function"
    },
    {
      "inputs": [
        {
          "internalType": "uint256",
          "name": "_what",
          "type": "uint256"
        },
        {
          "internalType": "uint256",
          "name": "price",
          "type": "uint256"
        }
      ],
      "name": "fixPrice",
      "outputs": [],
      "stateMutability": "nonpayable",
      "type": "function"
    },
    {
      "inputs": [],
      "name": "withdrawMatic",
      "outputs": [],
      "stateMutability": "nonpayable",
      "type": "function"
    },
    {
      "inputs": [
        {
          "internalType": "address",
          "name": "_address",
          "type": "address"
        },
        {
          "internalType": "string",
          "name": "_string1",
          "type": "string"
        },
        {
          "internalType": "string",
          "name": "_string2",
          "type": "string"
        },
        {
          "internalType": "uint256",
          "name": "_what",
          "type": "uint256"
        },
        {
          "internalType": "bool",
          "name": "_state",
          "type": "bool"
        }
      ],
      "name": "changeAdminLists",
      "outputs": [],
      "stateMutability": "nonpayable",
      "type": "function"
    }
  ],
  "bytecode": "0x6080604052678ac7230489e80000600955674563918244f40000600a55671bc16d674ec80000600b553480156200003557600080fd5b506040518060400160405280600981526020017f506f6c79676f6e4d4500000000000000000000000000000000000000000000008152506040518060400160405280600281526020017f4d450000000000000000000000000000000000000000000000000000000000008152508160009080519060200190620000ba929190620001ca565b508060019080519060200190620000d3929190620001ca565b505050620000f6620000ea620000fc60201b60201c565b6200010460201b60201c565b620002df565b600033905090565b6000600660009054906101000a900473ffffffffffffffffffffffffffffffffffffffff16905081600660006101000a81548173ffffffffffffffffffffffffffffffffffffffff021916908373ffffffffffffffffffffffffffffffffffffffff1602179055508173ffffffffffffffffffffffffffffffffffffffff168173ffffffffffffffffffffffffffffffffffffffff167f8be0079c531659141344cd1fd0a4f28419497f9722a3daafe3b4186f6b6457e060405160405180910390a35050565b828054620001d890620002a9565b90600052602060002090601f016020900481019282620001fc576000855562000248565b82601f106200021757805160ff191683800117855562000248565b8280016001018555821562000248579182015b82811115620002475782518255916020019190600101906200022a565b5b5090506200025791906200025b565b5090565b5b80821115620002765760008160009055506001016200025c565b5090565b7f4e487b7100000000000000000000000000000000000000000000000000000000600052602260045260246000fd5b60006002820490506001821680620002c257607f821691505b60208210811415620002d957620002d86200027a565b5b50919050565b615eb280620002ef6000396000f3fe6080604052600436106101c25760003560e01c80638462151c116100f7578063afec2dec11610095578063e8a3d48511610064578063e8a3d48514610667578063e985e9c514610692578063ed4768d5146106cf578063f2fde38b1461070c576101c2565b8063afec2dec146105bc578063b88d4fde146105d8578063c87b56dd14610601578063d4ed63361461063e576101c2565b806395d89b41116100d157806395d89b41146104ee5780639a65ddec14610519578063a22cb46514610556578063a47cf9741461057f576101c2565b80638462151c146104495780638d80c922146104865780638da5cb5b146104c3576101c2565b80632b09ea051161016457806370a082311161013e57806370a08231146103b5578063715018a6146103f25780637c5eea0e14610409578063810074c614610432576101c2565b80632b09ea051461032657806342842e0e1461034f5780636352211e14610378576101c2565b8063095ea7b3116101a0578063095ea7b31461026c57806318160ddd146102955780632394f43b146102c057806323b872dd146102fd576101c2565b806301ffc9a7146101c757806306fdde0314610204578063081812fc1461022f575b600080fd5b3480156101d357600080fd5b506101ee60048036038101906101e99190613bd5565b610735565b6040516101fb9190613c1d565b60405180910390f35b34801561021057600080fd5b50610219610817565b6040516102269190613cd1565b60405180910390f35b34801561023b57600080fd5b5061025660048036038101906102519190613d29565b6108a9565b6040516102639190613d97565b60405180910390f35b34801561027857600080fd5b50610293600480360381019061028e9190613dde565b61092e565b005b3480156102a157600080fd5b506102aa610a46565b6040516102b79190613e2d565b60405180910390f35b3480156102cc57600080fd5b506102e760048036038101906102e29190613f7d565b610a57565b6040516102f49190613e2d565b60405180910390f35b34801561030957600080fd5b50610324600480360381019061031f9190613fc6565b610a7f565b005b34801561033257600080fd5b5061034d60048036038101906103489190614019565b610adf565b005b34801561035b57600080fd5b5061037660048036038101906103719190613fc6565b610b9c565b005b34801561038457600080fd5b5061039f600480360381019061039a9190613d29565b610bbc565b6040516103ac9190613d97565b60405180910390f35b3480156103c157600080fd5b506103dc60048036038101906103d79190614059565b610c6e565b6040516103e99190613e2d565b60405180910390f35b3480156103fe57600080fd5b50610407610d26565b005b34801561041557600080fd5b50610430600480360381019061042b9190614086565b610dae565b005b34801561043e57600080fd5b506104476110d9565b005b34801561045557600080fd5b50610470600480360381019061046b9190614059565b6111e7565b60405161047d9190614334565b60405180910390f35b34801561049257600080fd5b506104ad60048036038101906104a89190613d29565b611345565b6040516104ba9190613d97565b60405180910390f35b3480156104cf57600080fd5b506104d8611385565b6040516104e59190613d97565b60405180910390f35b3480156104fa57600080fd5b506105036113af565b6040516105109190613cd1565b60405180910390f35b34801561052557600080fd5b50610540600480360381019061053b9190613f7d565b611441565b60405161054d9190613d97565b60405180910390f35b34801561056257600080fd5b5061057d60048036038101906105789190614382565b6114a4565b005b34801561058b57600080fd5b506105a660048036038101906105a19190613f7d565b611625565b6040516105b39190613e2d565b60405180910390f35b6105d660048036038101906105d191906143c2565b611653565b005b3480156105e457600080fd5b506105ff60048036038101906105fa91906144db565b611a46565b005b34801561060d57600080fd5b5061062860048036038101906106239190613d29565b611aa8565b6040516106359190613cd1565b60405180910390f35b34801561064a57600080fd5b506106656004803603810190610660919061455e565b612812565b005b34801561067357600080fd5b5061067c612a04565b6040516106899190613cd1565b60405180910390f35b34801561069e57600080fd5b506106b960048036038101906106b49190614611565b612a24565b6040516106c69190613c1d565b60405180910390f35b3480156106db57600080fd5b506106f660048036038101906106f19190613f7d565b612ab8565b6040516107039190613c1d565b60405180910390f35b34801561071857600080fd5b50610733600480360381019061072e9190614059565b612aee565b005b60007f80ac58cd000000000000000000000000000000000000000000000000000000007bffffffffffffffffffffffffffffffffffffffffffffffffffffffff1916827bffffffffffffffffffffffffffffffffffffffffffffffffffffffff1916148061080057507f5b5e139f000000000000000000000000000000000000000000000000000000007bffffffffffffffffffffffffffffffffffffffffffffffffffffffff1916827bffffffffffffffffffffffffffffffffffffffffffffffffffffffff1916145b80610810575061080f82612be6565b5b9050919050565b60606000805461082690614680565b80601f016020809104026020016040519081016040528092919081815260200182805461085290614680565b801561089f5780601f106108745761010080835404028352916020019161089f565b820191906000526020600020905b81548152906001019060200180831161088257829003601f168201915b5050505050905090565b60006108b482612c50565b6108f3576040517f08c379a00000000000000000000000000000000000000000000000000000000081526004016108ea90614724565b60405180910390fd5b6004600083815260200190815260200160002060009054906101000a900473ffffffffffffffffffffffffffffffffffffffff169050919050565b600061093982610bbc565b90508073ffffffffffffffffffffffffffffffffffffffff168373ffffffffffffffffffffffffffffffffffffffff1614156109aa576040517f08c379a00000000000000000000000000000000000000000000000000000000081526004016109a1906147b6565b60405180910390fd5b8073ffffffffffffffffffffffffffffffffffffffff166109c9612cbc565b73ffffffffffffffffffffffffffffffffffffffff1614806109f857506109f7816109f2612cbc565b612a24565b5b610a37576040517f08c379a0000000000000000000000000000000000000000000000000000000008152600401610a2e90614848565b60405180910390fd5b610a418383612cc4565b505050565b6000610a526008612d7d565b905090565b6000600c82604051610a6991906148a4565b9081526020016040518091039020549050919050565b610a90610a8a612cbc565b82612d8b565b610acf576040517f08c379a0000000000000000000000000000000000000000000000000000000008152600401610ac69061492d565b60405180910390fd5b610ada838383612e69565b505050565b610ae7612cbc565b73ffffffffffffffffffffffffffffffffffffffff16610b05611385565b73ffffffffffffffffffffffffffffffffffffffff1614610b5b576040517f08c379a0000000000000000000000000000000000000000000000000000000008152600401610b5290614999565b60405180910390fd5b6000821415610b705780600981905550610b98565b6001821415610b855780600a81905550610b97565b6002821415610b965780600b819055505b5b5b5050565b610bb783838360405180602001604052806000815250611a46565b505050565b6000806002600084815260200190815260200160002060009054906101000a900473ffffffffffffffffffffffffffffffffffffffff169050600073ffffffffffffffffffffffffffffffffffffffff168173ffffffffffffffffffffffffffffffffffffffff161415610c65576040517f08c379a0000000000000000000000000000000000000000000000000000000008152600401610c5c90614a2b565b60405180910390fd5b80915050919050565b60008073ffffffffffffffffffffffffffffffffffffffff168273ffffffffffffffffffffffffffffffffffffffff161415610cdf576040517f08c379a0000000000000000000000000000000000000000000000000000000008152600401610cd690614abd565b60405180910390fd5b600360008373ffffffffffffffffffffffffffffffffffffffff1673ffffffffffffffffffffffffffffffffffffffff168152602001908152602001600020549050919050565b610d2e612cbc565b73ffffffffffffffffffffffffffffffffffffffff16610d4c611385565b73ffffffffffffffffffffffffffffffffffffffff1614610da2576040517f08c379a0000000000000000000000000000000000000000000000000000000008152600401610d9990614999565b60405180910390fd5b610dac60006130c5565b565b610db78b610bbc565b73ffffffffffffffffffffffffffffffffffffffff163373ffffffffffffffffffffffffffffffffffffffff161480610e225750610df3611385565b73ffffffffffffffffffffffffffffffffffffffff163373ffffffffffffffffffffffffffffffffffffffff16145b610e61576040517f08c379a0000000000000000000000000000000000000000000000000000000008152600401610e5890614b29565b60405180910390fd5b60001515600e60003373ffffffffffffffffffffffffffffffffffffffff1673ffffffffffffffffffffffffffffffffffffffff16815260200190815260200160002060009054906101000a900460ff16151514610ef4576040517f08c379a0000000000000000000000000000000000000000000000000000000008152600401610eeb90614b95565b60405180910390fd5b89600d60008d815260200190815260200160002060000160006101000a81548173ffffffffffffffffffffffffffffffffffffffff021916908373ffffffffffffffffffffffffffffffffffffffff16021790555088600d60008d81526020019081526020016000206003019080519060200190610f73929190613a11565b5087600d60008d81526020019081526020016000206004019080519060200190610f9e929190613a11565b5086600d60008d81526020019081526020016000206005019080519060200190610fc9929190613a11565b5085600d60008d81526020019081526020016000206006019080519060200190610ff4929190613a11565b5084600d60008d8152602001908152602001600020600701908051906020019061101f929190613a11565b5083600d60008d8152602001908152602001600020600801908051906020019061104a929190613a11565b5082600d60008d81526020019081526020016000206009019080519060200190611075929190613a11565b5081600d60008d8152602001908152602001600020600a0190805190602001906110a0929190613a11565b5080600d60008d8152602001908152602001600020600b0190805190602001906110cb929190613a11565b505050505050505050505050565b6110e1612cbc565b73ffffffffffffffffffffffffffffffffffffffff166110ff611385565b73ffffffffffffffffffffffffffffffffffffffff1614611155576040517f08c379a000000000000000000000000000000000000000000000000000000000815260040161114c90614999565b60405180910390fd5b60004790506000811161119d576040517f08c379a000000000000000000000000000000000000000000000000000000000815260040161119490614c01565b60405180910390fd5b3373ffffffffffffffffffffffffffffffffffffffff166108fc829081150290604051600060405180830381858888f193505050501580156111e3573d6000803e3d6000fd5b5050565b606060006111f483610c6e565b9050600081141561125157600067ffffffffffffffff81111561121a57611219613e52565b5b6040519080825280602002602001820160405280156112485781602001602082028036833780820191505090505b50915050611340565b60008167ffffffffffffffff81111561126d5761126c613e52565b5b60405190808252806020026020018201604052801561129b5781602001602082028036833780820191505090505b50905060006112a8610a46565b9050600080600190505b828111611337578673ffffffffffffffffffffffffffffffffffffffff166112d982610bbc565b73ffffffffffffffffffffffffffffffffffffffff161415611324578084838151811061130957611308614c21565b5b602002602001018181525050818061132090614c7f565b9250505b808061132f90614c7f565b9150506112b2565b83955050505050505b919050565b6000600d600083815260200190815260200160002060000160009054906101000a900473ffffffffffffffffffffffffffffffffffffffff169050919050565b6000600660009054906101000a900473ffffffffffffffffffffffffffffffffffffffff16905090565b6060600180546113be90614680565b80601f01602080910402602001604051908101604052809291908181526020018280546113ea90614680565b80156114375780601f1061140c57610100808354040283529160200191611437565b820191906000526020600020905b81548152906001019060200180831161141a57829003601f168201915b5050505050905090565b600080600c8360405161145491906148a4565b9081526020016040518091039020549050600d600082815260200190815260200160002060000160009054906101000a900473ffffffffffffffffffffffffffffffffffffffff16915050919050565b6114ac612cbc565b73ffffffffffffffffffffffffffffffffffffffff168273ffffffffffffffffffffffffffffffffffffffff16141561151a576040517f08c379a000000000000000000000000000000000000000000000000000000000815260040161151190614d14565b60405180910390fd5b8060056000611527612cbc565b73ffffffffffffffffffffffffffffffffffffffff1673ffffffffffffffffffffffffffffffffffffffff16815260200190815260200160002060008473ffffffffffffffffffffffffffffffffffffffff1673ffffffffffffffffffffffffffffffffffffffff16815260200190815260200160002060006101000a81548160ff0219169083151502179055508173ffffffffffffffffffffffffffffffffffffffff166115d4612cbc565b73ffffffffffffffffffffffffffffffffffffffff167f17307eab39ab6107e8899845ad3d59bd9653f200f220920489ca2b5937696c31836040516116199190613c1d565b60405180910390a35050565b600c818051602081018201805184825260208301602085012081835280955050505050506000915090505481565b600082519050600060095490506005821180156116715750600a8211155b1561167c57600a5490505b600a82111561168b57600b5490505b600084846040516020016116a0929190614d80565b6040516020818303038152906040529050600083116116f4576040517f08c379a00000000000000000000000000000000000000000000000000000000081526004016116eb90614dfb565b60405180910390fd5b60108460405161170491906148a4565b908152602001604051809103902060009054906101000a900460ff1661175f576040517f08c379a000000000000000000000000000000000000000000000000000000000815260040161175690614e67565b60405180910390fd5b6000600c8260405161177191906148a4565b908152602001604051809103902054146117c0576040517f08c379a00000000000000000000000000000000000000000000000000000000081526004016117b790614ed3565b60405180910390fd5b813414611802576040517f08c379a00000000000000000000000000000000000000000000000000000000081526004016117f990614f65565b60405180910390fd5b61180c853361318b565b61184b576040517f08c379a000000000000000000000000000000000000000000000000000000000815260040161184290614ff7565b60405180910390fd5b6118556008613499565b60006118616008612d7d565b905080600c8360405161187491906148a4565b9081526020016040518091039020819055506040518060400160405280600781526020017f2338323437453500000000000000000000000000000000000000000000000000815250600d600083815260200190815260200160002060080190805190602001906118e5929190613a11565b506040518060400160405280600781526020017f2366666666666600000000000000000000000000000000000000000000000000815250600d60008381526020019081526020016000206009019080519060200190611945929190613a11565b5060118560405161195691906148a4565b9081526020016040518091039020600d6000838152602001908152602001600020600a0190805461198690614680565b611991929190613a97565b506012856040516119a291906148a4565b9081526020016040518091039020600d6000838152602001908152602001600020600b019080546119d290614680565b6119dd929190613a97565b5085600d60008381526020019081526020016000206001019080519060200190611a08929190613a11565b5084600d60008381526020019081526020016000206002019080519060200190611a33929190613a11565b50611a3e33826134af565b505050505050565b611a57611a51612cbc565b83612d8b565b611a96576040517f08c379a0000000000000000000000000000000000000000000000000000000008152600401611a8d9061492d565b60405180910390fd5b611aa28484848461367d565b50505050565b6060611ab2613b24565b6000600d6000858152602001908152602001600020604051806101800160405290816000820160009054906101000a900473ffffffffffffffffffffffffffffffffffffffff1673ffffffffffffffffffffffffffffffffffffffff1673ffffffffffffffffffffffffffffffffffffffff168152602001600182018054611b3990614680565b80601f0160208091040260200160405190810160405280929190818152602001828054611b6590614680565b8015611bb25780601f10611b8757610100808354040283529160200191611bb2565b820191906000526020600020905b815481529060010190602001808311611b9557829003601f168201915b50505050508152602001600282018054611bcb90614680565b80601f0160208091040260200160405190810160405280929190818152602001828054611bf790614680565b8015611c445780601f10611c1957610100808354040283529160200191611c44565b820191906000526020600020905b815481529060010190602001808311611c2757829003601f168201915b50505050508152602001600382018054611c5d90614680565b80601f0160208091040260200160405190810160405280929190818152602001828054611c8990614680565b8015611cd65780601f10611cab57610100808354040283529160200191611cd6565b820191906000526020600020905b815481529060010190602001808311611cb957829003601f168201915b50505050508152602001600482018054611cef90614680565b80601f0160208091040260200160405190810160405280929190818152602001828054611d1b90614680565b8015611d685780601f10611d3d57610100808354040283529160200191611d68565b820191906000526020600020905b815481529060010190602001808311611d4b57829003601f168201915b50505050508152602001600582018054611d8190614680565b80601f0160208091040260200160405190810160405280929190818152602001828054611dad90614680565b8015611dfa5780601f10611dcf57610100808354040283529160200191611dfa565b820191906000526020600020905b815481529060010190602001808311611ddd57829003601f168201915b50505050508152602001600682018054611e1390614680565b80601f0160208091040260200160405190810160405280929190818152602001828054611e3f90614680565b8015611e8c5780601f10611e6157610100808354040283529160200191611e8c565b820191906000526020600020905b815481529060010190602001808311611e6f57829003601f168201915b50505050508152602001600782018054611ea590614680565b80601f0160208091040260200160405190810160405280929190818152602001828054611ed190614680565b8015611f1e5780601f10611ef357610100808354040283529160200191611f1e565b820191906000526020600020905b815481529060010190602001808311611f0157829003601f168201915b50505050508152602001600882018054611f3790614680565b80601f0160208091040260200160405190810160405280929190818152602001828054611f6390614680565b8015611fb05780601f10611f8557610100808354040283529160200191611fb0565b820191906000526020600020905b815481529060010190602001808311611f9357829003601f168201915b50505050508152602001600982018054611fc990614680565b80601f0160208091040260200160405190810160405280929190818152602001828054611ff590614680565b80156120425780601f1061201757610100808354040283529160200191612042565b820191906000526020600020905b81548152906001019060200180831161202557829003601f168201915b50505050508152602001600a8201805461205b90614680565b80601f016020809104026020016040519081016040528092919081815260200182805461208790614680565b80156120d45780601f106120a9576101008083540402835291602001916120d4565b820191906000526020600020905b8154815290600101906020018083116120b757829003601f168201915b50505050508152602001600b820180546120ed90614680565b80601f016020809104026020016040519081016040528092919081815260200182805461211990614680565b80156121665780601f1061213b57610100808354040283529160200191612166565b820191906000526020600020905b81548152906001019060200180831161214957829003601f168201915b50505050508152505090506040518060a0016040528060778152602001615c8a607791398260006013811061219e5761219d614c21565b5b6020020181905250806101200151826001601381106121c0576121bf614c21565b5b60200201819052506040518060800160405280605b8152602001615c07605b9139826002601381106121f5576121f4614c21565b5b60200201819052508061010001518260036013811061221757612216614c21565b5b60200201819052506040518060400160405280600481526020017f22202f3e000000000000000000000000000000000000000000000000000000008152508260046013811061226957612268614c21565b5b60200201819052508061014001518260056013811061228b5761228a614c21565b5b6020020181905250604051806060016040528060288152602001615c6260289139826006601381106122c0576122bf614c21565b5b6020020181905250806020015181604001516040516020016122e3929190614d80565b6040516020818303038152906040528260076013811061230657612305614c21565b5b60200201819052506040518060600160405280602e8152602001615e4f602e91398260086013811061233b5761233a614c21565b5b602002018190525080606001518260096013811061235c5761235b614c21565b5b60200201819052506040518060600160405280602e8152602001615d32602e913982600a6013811061239157612390614c21565b5b6020020181905250806080015182600b601381106123b2576123b1614c21565b5b6020020181905250604051806060016040528060318152602001615d016031913982600c601381106123e7576123e6614c21565b5b60200201819052508060a0015182600d6013811061240857612407614c21565b5b60200201819052506040518060600160405280602e8152602001615e21602e913982600e6013811061243d5761243c614c21565b5b60200201819052508060c0015182600f6013811061245e5761245d614c21565b5b6020020181905250604051806060016040528060318152602001615da0603191398260106013811061249357612492614c21565b5b60200201819052508060e00151826011601381106124b4576124b3614c21565b5b60200201819052506040518060400160405280600d81526020017f3c2f746578743e3c2f7376673e000000000000000000000000000000000000008152508260126013811061250657612505614c21565b5b602002018190525060008260006013811061252457612523614c21565b5b60200201518360016013811061253d5761253c614c21565b5b60200201518460026013811061255657612555614c21565b5b60200201518560036013811061256f5761256e614c21565b5b60200201518660046013811061258857612587614c21565b5b6020020151876005601381106125a1576125a0614c21565b5b6020020151886006601381106125ba576125b9614c21565b5b6020020151896007601381106125d3576125d2614c21565b5b60200201516040516020016125ef989796959493929190615017565b6040516020818303038152906040529050808360086013811061261557612614614c21565b5b60200201518460096013811061262e5761262d614c21565b5b602002015185600a6013811061264757612646614c21565b5b602002015186600b601381106126605761265f614c21565b5b602002015187600c6013811061267957612678614c21565b5b602002015188600d6013811061269257612691614c21565b5b602002015189600e601381106126ab576126aa614c21565b5b60200201516040516020016126c7989796959493929190615017565b60405160208183030381529060405290508083600f601381106126ed576126ec614c21565b5b60200201518460106013811061270657612705614c21565b5b60200201518560116013811061271f5761271e614c21565b5b60200201518660126013811061273857612737614c21565b5b6020020151604051602001612751959493929190615089565b604051602081830303815290604052905060006127e283602001518460400151856101600151866060015187608001518860a001518960c001518a60e001516127998b6136d9565b6127a78d61014001516136d9565b8d61010001518e61012001516040516020016127ce9c9b9a9998979695949392919061548a565b6040516020818303038152906040526136d9565b9050806040516020016127f5919061560b565b604051602081830303815290604052915081945050505050919050565b61281a612cbc565b73ffffffffffffffffffffffffffffffffffffffff16612838611385565b73ffffffffffffffffffffffffffffffffffffffff161461288e576040517f08c379a000000000000000000000000000000000000000000000000000000000815260040161288590614999565b60405180910390fd5b60008214156128f35780600e60008773ffffffffffffffffffffffffffffffffffffffff1673ffffffffffffffffffffffffffffffffffffffff16815260200190815260200160002060006101000a81548160ff0219169083151502179055506129fd565b60018214156129375780600f8560405161290d91906148a4565b908152602001604051809103902060006101000a81548160ff0219169083151502179055506129fc565b600282141561297b578060108560405161295191906148a4565b908152602001604051809103902060006101000a81548160ff0219169083151502179055506129fb565b60038214156129bc578260118560405161299591906148a4565b908152602001604051809103902090805190602001906129b6929190613a11565b506129fa565b60048214156129f957826012856040516129d691906148a4565b908152602001604051809103902090805190602001906129f7929190613a11565b505b5b5b5b5b5050505050565b6060604051806080016040528060508152602001615dd160509139905090565b6000600560008473ffffffffffffffffffffffffffffffffffffffff1673ffffffffffffffffffffffffffffffffffffffff16815260200190815260200160002060008373ffffffffffffffffffffffffffffffffffffffff1673ffffffffffffffffffffffffffffffffffffffff16815260200190815260200160002060009054906101000a900460ff16905092915050565b6010818051602081018201805184825260208301602085012081835280955050505050506000915054906101000a900460ff1681565b612af6612cbc565b73ffffffffffffffffffffffffffffffffffffffff16612b14611385565b73ffffffffffffffffffffffffffffffffffffffff1614612b6a576040517f08c379a0000000000000000000000000000000000000000000000000000000008152600401612b6190614999565b60405180910390fd5b600073ffffffffffffffffffffffffffffffffffffffff168173ffffffffffffffffffffffffffffffffffffffff161415612bda576040517f08c379a0000000000000000000000000000000000000000000000000000000008152600401612bd19061569f565b60405180910390fd5b612be3816130c5565b50565b60007f01ffc9a7000000000000000000000000000000000000000000000000000000007bffffffffffffffffffffffffffffffffffffffffffffffffffffffff1916827bffffffffffffffffffffffffffffffffffffffffffffffffffffffff1916149050919050565b60008073ffffffffffffffffffffffffffffffffffffffff166002600084815260200190815260200160002060009054906101000a900473ffffffffffffffffffffffffffffffffffffffff1673ffffffffffffffffffffffffffffffffffffffff1614159050919050565b600033905090565b816004600083815260200190815260200160002060006101000a81548173ffffffffffffffffffffffffffffffffffffffff021916908373ffffffffffffffffffffffffffffffffffffffff160217905550808273ffffffffffffffffffffffffffffffffffffffff16612d3783610bbc565b73ffffffffffffffffffffffffffffffffffffffff167f8c5be1e5ebec7d5bd14f71427d1e84f3dd0314c0f7b2291e5b200ac8c7c3b92560405160405180910390a45050565b600081600001549050919050565b6000612d9682612c50565b612dd5576040517f08c379a0000000000000000000000000000000000000000000000000000000008152600401612dcc90615731565b60405180910390fd5b6000612de083610bbc565b90508073ffffffffffffffffffffffffffffffffffffffff168473ffffffffffffffffffffffffffffffffffffffff161480612e4f57508373ffffffffffffffffffffffffffffffffffffffff16612e37846108a9565b73ffffffffffffffffffffffffffffffffffffffff16145b80612e605750612e5f8185612a24565b5b91505092915050565b8273ffffffffffffffffffffffffffffffffffffffff16612e8982610bbc565b73ffffffffffffffffffffffffffffffffffffffff1614612edf576040517f08c379a0000000000000000000000000000000000000000000000000000000008152600401612ed6906157c3565b60405180910390fd5b600073ffffffffffffffffffffffffffffffffffffffff168273ffffffffffffffffffffffffffffffffffffffff161415612f4f576040517f08c379a0000000000000000000000000000000000000000000000000000000008152600401612f4690615855565b60405180910390fd5b612f5a838383613871565b612f65600082612cc4565b6001600360008573ffffffffffffffffffffffffffffffffffffffff1673ffffffffffffffffffffffffffffffffffffffff1681526020019081526020016000206000828254612fb59190615875565b925050819055506001600360008473ffffffffffffffffffffffffffffffffffffffff1673ffffffffffffffffffffffffffffffffffffffff168152602001908152602001600020600082825461300c91906158a9565b92505081905550816002600083815260200190815260200160002060006101000a81548173ffffffffffffffffffffffffffffffffffffffff021916908373ffffffffffffffffffffffffffffffffffffffff160217905550808273ffffffffffffffffffffffffffffffffffffffff168473ffffffffffffffffffffffffffffffffffffffff167fddf252ad1be2c89b69c2b068fc378daa952ba7f163c4a11628f55a4df523b3ef60405160405180910390a4505050565b6000600660009054906101000a900473ffffffffffffffffffffffffffffffffffffffff16905081600660006101000a81548173ffffffffffffffffffffffffffffffffffffffff021916908373ffffffffffffffffffffffffffffffffffffffff1602179055508173ffffffffffffffffffffffffffffffffffffffff168173ffffffffffffffffffffffffffffffffffffffff167f8be0079c531659141344cd1fd0a4f28419497f9722a3daafe3b4186f6b6457e060405160405180910390a35050565b60008083905060006001905060005b82518110156133e057604160f81b8382815181106131bb576131ba614c21565b5b602001015160f81c60f81b7effffffffffffffffffffffffffffffffffffffffffffffffffffffffffffff1916101580156132395750605a60f81b83828151811061320957613208614c21565b5b602001015160f81c60f81b7effffffffffffffffffffffffffffffffffffffffffffffffffffffffffffff191611155b1561324757600091506133cd565b606160f81b83828151811061325f5761325e614c21565b5b602001015160f81c60f81b7effffffffffffffffffffffffffffffffffffffffffffffffffffffffffffff191610806132da5750607a60f81b8382815181106132ab576132aa614c21565b5b602001015160f81c60f81b7effffffffffffffffffffffffffffffffffffffffffffffffffffffffffffff1916115b80156133295750602d60f81b8382815181106132f9576132f8614c21565b5b602001015160f81c60f81b7effffffffffffffffffffffffffffffffffffffffffffffffffffffffffffff191614155b156133cc57603060f81b83828151811061334657613345614c21565b5b602001015160f81c60f81b7effffffffffffffffffffffffffffffffffffffffffffffffffffffffffffff191610806133c15750603960f81b83828151811061339257613391614c21565b5b602001015160f81c60f81b7effffffffffffffffffffffffffffffffffffffffffffffffffffffffffffff1916115b156133cb57600091505b5b5b80806133d890614c7f565b91505061319a565b5080801561341d575060011515600f866040516133fd91906148a4565b908152602001604051809103902060009054906101000a900460ff161515145b1561342757600090505b808015613484575060011515600e60008673ffffffffffffffffffffffffffffffffffffffff1673ffffffffffffffffffffffffffffffffffffffff16815260200190815260200160002060009054906101000a900460ff161515145b1561348e57600090505b809250505092915050565b6001816000016000828254019250508190555050565b600073ffffffffffffffffffffffffffffffffffffffff168273ffffffffffffffffffffffffffffffffffffffff16141561351f576040517f08c379a00000000000000000000000000000000000000000000000000000000081526004016135169061594b565b60405180910390fd5b61352881612c50565b15613568576040517f08c379a000000000000000000000000000000000000000000000000000000000815260040161355f906159b7565b60405180910390fd5b61357460008383613871565b6001600360008473ffffffffffffffffffffffffffffffffffffffff1673ffffffffffffffffffffffffffffffffffffffff16815260200190815260200160002060008282546135c491906158a9565b92505081905550816002600083815260200190815260200160002060006101000a81548173ffffffffffffffffffffffffffffffffffffffff021916908373ffffffffffffffffffffffffffffffffffffffff160217905550808273ffffffffffffffffffffffffffffffffffffffff16600073ffffffffffffffffffffffffffffffffffffffff167fddf252ad1be2c89b69c2b068fc378daa952ba7f163c4a11628f55a4df523b3ef60405160405180910390a45050565b613688848484612e69565b61369484848484613876565b6136d3576040517f08c379a00000000000000000000000000000000000000000000000000000000081526004016136ca90615a49565b60405180910390fd5b50505050565b60606000825190506000811415613702576040518060200160405280600081525091505061386c565b6000600360028361371391906158a9565b61371d9190615a98565b60046137299190615ac9565b9050600060208261373a91906158a9565b67ffffffffffffffff81111561375357613752613e52565b5b6040519080825280601f01601f1916602001820160405280156137855781602001600182028036833780820191505090505b5090506000604051806060016040528060408152602001615d60604091399050600181016020830160005b868110156138295760038101905062ffffff818a015116603f8160121c168401518060081b905060ff603f83600c1c1686015116810190508060081b905060ff603f8360061c1686015116810190508060081b905060ff603f831686015116810190508060e01b905080845260048401935050506137b0565b50600386066001811461384357600281146138535761385e565b613d3d60f01b600283035261385e565b603d60f81b60018303525b508484525050819450505050505b919050565b505050565b60006138978473ffffffffffffffffffffffffffffffffffffffff166139fe565b156139f1578373ffffffffffffffffffffffffffffffffffffffff1663150b7a026138c0612cbc565b8786866040518563ffffffff1660e01b81526004016138e29493929190615b78565b6020604051808303816000875af192505050801561391e57506040513d601f19601f8201168201806040525081019061391b9190615bd9565b60015b6139a1573d806000811461394e576040519150601f19603f3d011682016040523d82523d6000602084013e613953565b606091505b50600081511415613999576040517f08c379a000000000000000000000000000000000000000000000000000000000815260040161399090615a49565b60405180910390fd5b805181602001fd5b63150b7a0260e01b7bffffffffffffffffffffffffffffffffffffffffffffffffffffffff1916817bffffffffffffffffffffffffffffffffffffffffffffffffffffffff1916149150506139f6565b600190505b949350505050565b600080823b905060008111915050919050565b828054613a1d90614680565b90600052602060002090601f016020900481019282613a3f5760008555613a86565b82601f10613a5857805160ff1916838001178555613a86565b82800160010185558215613a86579182015b82811115613a85578251825591602001919060010190613a6a565b5b509050613a939190613b4c565b5090565b828054613aa390614680565b90600052602060002090601f016020900481019282613ac55760008555613b13565b82601f10613ad65780548555613b13565b82800160010185558215613b1357600052602060002091601f016020900482015b82811115613b12578254825591600101919060010190613af7565b5b509050613b209190613b4c565b5090565b6040518061026001604052806013905b6060815260200190600190039081613b345790505090565b5b80821115613b65576000816000905550600101613b4d565b5090565b6000604051905090565b600080fd5b600080fd5b60007fffffffff0000000000000000000000000000000000000000000000000000000082169050919050565b613bb281613b7d565b8114613bbd57600080fd5b50565b600081359050613bcf81613ba9565b92915050565b600060208284031215613beb57613bea613b73565b5b6000613bf984828501613bc0565b91505092915050565b60008115159050919050565b613c1781613c02565b82525050565b6000602082019050613c326000830184613c0e565b92915050565b600081519050919050565b600082825260208201905092915050565b60005b83811015613c72578082015181840152602081019050613c57565b83811115613c81576000848401525b50505050565b6000601f19601f8301169050919050565b6000613ca382613c38565b613cad8185613c43565b9350613cbd818560208601613c54565b613cc681613c87565b840191505092915050565b60006020820190508181036000830152613ceb8184613c98565b905092915050565b6000819050919050565b613d0681613cf3565b8114613d1157600080fd5b50565b600081359050613d2381613cfd565b92915050565b600060208284031215613d3f57613d3e613b73565b5b6000613d4d84828501613d14565b91505092915050565b600073ffffffffffffffffffffffffffffffffffffffff82169050919050565b6000613d8182613d56565b9050919050565b613d9181613d76565b82525050565b6000602082019050613dac6000830184613d88565b92915050565b613dbb81613d76565b8114613dc657600080fd5b50565b600081359050613dd881613db2565b92915050565b60008060408385031215613df557613df4613b73565b5b6000613e0385828601613dc9565b9250506020613e1485828601613d14565b9150509250929050565b613e2781613cf3565b82525050565b6000602082019050613e426000830184613e1e565b92915050565b600080fd5b600080fd5b7f4e487b7100000000000000000000000000000000000000000000000000000000600052604160045260246000fd5b613e8a82613c87565b810181811067ffffffffffffffff82111715613ea957613ea8613e52565b5b80604052505050565b6000613ebc613b69565b9050613ec88282613e81565b919050565b600067ffffffffffffffff821115613ee857613ee7613e52565b5b613ef182613c87565b9050602081019050919050565b82818337600083830152505050565b6000613f20613f1b84613ecd565b613eb2565b905082815260208101848484011115613f3c57613f3b613e4d565b5b613f47848285613efe565b509392505050565b600082601f830112613f6457613f63613e48565b5b8135613f74848260208601613f0d565b91505092915050565b600060208284031215613f9357613f92613b73565b5b600082013567ffffffffffffffff811115613fb157613fb0613b78565b5b613fbd84828501613f4f565b91505092915050565b600080600060608486031215613fdf57613fde613b73565b5b6000613fed86828701613dc9565b9350506020613ffe86828701613dc9565b925050604061400f86828701613d14565b9150509250925092565b600080604083850312156140305761402f613b73565b5b600061403e85828601613d14565b925050602061404f85828601613d14565b9150509250929050565b60006020828403121561406f5761406e613b73565b5b600061407d84828501613dc9565b91505092915050565b60008060008060008060008060008060006101608c8e0312156140ac576140ab613b73565b5b60006140ba8e828f01613d14565b9b505060206140cb8e828f01613dc9565b9a505060408c013567ffffffffffffffff8111156140ec576140eb613b78565b5b6140f88e828f01613f4f565b99505060608c013567ffffffffffffffff81111561411957614118613b78565b5b6141258e828f01613f4f565b98505060808c013567ffffffffffffffff81111561414657614145613b78565b5b6141528e828f01613f4f565b97505060a08c013567ffffffffffffffff81111561417357614172613b78565b5b61417f8e828f01613f4f565b96505060c08c013567ffffffffffffffff8111156141a05761419f613b78565b5b6141ac8e828f01613f4f565b95505060e08c013567ffffffffffffffff8111156141cd576141cc613b78565b5b6141d98e828f01613f4f565b9450506101008c013567ffffffffffffffff8111156141fb576141fa613b78565b5b6142078e828f01613f4f565b9350506101208c013567ffffffffffffffff81111561422957614228613b78565b5b6142358e828f01613f4f565b9250506101408c013567ffffffffffffffff81111561425757614256613b78565b5b6142638e828f01613f4f565b9150509295989b509295989b9093969950565b600081519050919050565b600082825260208201905092915050565b6000819050602082019050919050565b6142ab81613cf3565b82525050565b60006142bd83836142a2565b60208301905092915050565b6000602082019050919050565b60006142e182614276565b6142eb8185614281565b93506142f683614292565b8060005b8381101561432757815161430e88826142b1565b9750614319836142c9565b9250506001810190506142fa565b5085935050505092915050565b6000602082019050818103600083015261434e81846142d6565b905092915050565b61435f81613c02565b811461436a57600080fd5b50565b60008135905061437c81614356565b92915050565b6000806040838503121561439957614398613b73565b5b60006143a785828601613dc9565b92505060206143b88582860161436d565b9150509250929050565b600080604083850312156143d9576143d8613b73565b5b600083013567ffffffffffffffff8111156143f7576143f6613b78565b5b61440385828601613f4f565b925050602083013567ffffffffffffffff81111561442457614423613b78565b5b61443085828601613f4f565b9150509250929050565b600067ffffffffffffffff82111561445557614454613e52565b5b61445e82613c87565b9050602081019050919050565b600061447e6144798461443a565b613eb2565b90508281526020810184848401111561449a57614499613e4d565b5b6144a5848285613efe565b509392505050565b600082601f8301126144c2576144c1613e48565b5b81356144d284826020860161446b565b91505092915050565b600080600080608085870312156144f5576144f4613b73565b5b600061450387828801613dc9565b945050602061451487828801613dc9565b935050604061452587828801613d14565b925050606085013567ffffffffffffffff81111561454657614545613b78565b5b614552878288016144ad565b91505092959194509250565b600080600080600060a0868803121561457a57614579613b73565b5b600061458888828901613dc9565b955050602086013567ffffffffffffffff8111156145a9576145a8613b78565b5b6145b588828901613f4f565b945050604086013567ffffffffffffffff8111156145d6576145d5613b78565b5b6145e288828901613f4f565b93505060606145f388828901613d14565b92505060806146048882890161436d565b9150509295509295909350565b6000806040838503121561462857614627613b73565b5b600061463685828601613dc9565b925050602061464785828601613dc9565b9150509250929050565b7f4e487b7100000000000000000000000000000000000000000000000000000000600052602260045260246000fd5b6000600282049050600182168061469857607f821691505b602082108114156146ac576146ab614651565b5b50919050565b7f4552433732313a20617070726f76656420717565727920666f72206e6f6e657860008201527f697374656e7420746f6b656e0000000000000000000000000000000000000000602082015250565b600061470e602c83613c43565b9150614719826146b2565b604082019050919050565b6000602082019050818103600083015261473d81614701565b9050919050565b7f4552433732313a20617070726f76616c20746f2063757272656e74206f776e6560008201527f7200000000000000000000000000000000000000000000000000000000000000602082015250565b60006147a0602183613c43565b91506147ab82614744565b604082019050919050565b600060208201905081810360008301526147cf81614793565b9050919050565b7f4552433732313a20617070726f76652063616c6c6572206973206e6f74206f7760008201527f6e6572206e6f7220617070726f76656420666f7220616c6c0000000000000000602082015250565b6000614832603883613c43565b915061483d826147d6565b604082019050919050565b6000602082019050818103600083015261486181614825565b9050919050565b600081905092915050565b600061487e82613c38565b6148888185614868565b9350614898818560208601613c54565b80840191505092915050565b60006148b08284614873565b915081905092915050565b7f4552433732313a207472616e736665722063616c6c6572206973206e6f74206f60008201527f776e6572206e6f7220617070726f766564000000000000000000000000000000602082015250565b6000614917603183613c43565b9150614922826148bb565b604082019050919050565b600060208201905081810360008301526149468161490a565b9050919050565b7f4f776e61626c653a2063616c6c6572206973206e6f7420746865206f776e6572600082015250565b6000614983602083613c43565b915061498e8261494d565b602082019050919050565b600060208201905081810360008301526149b281614976565b9050919050565b7f4552433732313a206f776e657220717565727920666f72206e6f6e657869737460008201527f656e7420746f6b656e0000000000000000000000000000000000000000000000602082015250565b6000614a15602983613c43565b9150614a20826149b9565b604082019050919050565b60006020820190508181036000830152614a4481614a08565b9050919050565b7f4552433732313a2062616c616e636520717565727920666f7220746865207a6560008201527f726f206164647265737300000000000000000000000000000000000000000000602082015250565b6000614aa7602a83613c43565b9150614ab282614a4b565b604082019050919050565b60006020820190508181036000830152614ad681614a9a565b9050919050565b7f504e533a20596f75206d757374206f776e20746865206e616d65000000000000600082015250565b6000614b13601a83613c43565b9150614b1e82614add565b602082019050919050565b60006020820190508181036000830152614b4281614b06565b9050919050565b7f504e533a204163636f756e742062616e6e656400000000000000000000000000600082015250565b6000614b7f601383613c43565b9150614b8a82614b49565b602082019050919050565b60006020820190508181036000830152614bae81614b72565b9050919050565b7f504e533a204e6f7468696e6720746f2077697468647261772100000000000000600082015250565b6000614beb601983613c43565b9150614bf682614bb5565b602082019050919050565b60006020820190508181036000830152614c1a81614bde565b9050919050565b7f4e487b7100000000000000000000000000000000000000000000000000000000600052603260045260246000fd5b7f4e487b7100000000000000000000000000000000000000000000000000000000600052601160045260246000fd5b6000614c8a82613cf3565b91507fffffffffffffffffffffffffffffffffffffffffffffffffffffffffffffffff821415614cbd57614cbc614c50565b5b600182019050919050565b7f4552433732313a20617070726f766520746f2063616c6c657200000000000000600082015250565b6000614cfe601983613c43565b9150614d0982614cc8565b602082019050919050565b60006020820190508181036000830152614d2d81614cf1565b9050919050565b7f2e00000000000000000000000000000000000000000000000000000000000000600082015250565b6000614d6a600183614868565b9150614d7582614d34565b600182019050919050565b6000614d8c8285614873565b9150614d9782614d5d565b9150614da38284614873565b91508190509392505050565b7f504e533a20537472696e672063616e277420626520766f696400000000000000600082015250565b6000614de5601983613c43565b9150614df082614daf565b602082019050919050565b60006020820190508181036000830152614e1481614dd8565b9050919050565b7f504e533a205468697320544c44206973206e6f7420616c6c6f77656400000000600082015250565b6000614e51601c83613c43565b9150614e5c82614e1b565b602082019050919050565b60006020820190508181036000830152614e8081614e44565b9050919050565b7f504e533a2054686973206e616d6520616c726561647920657869737473000000600082015250565b6000614ebd601d83613c43565b9150614ec882614e87565b602082019050919050565b60006020820190508181036000830152614eec81614eb0565b9050919050565b7f504e533a20416d6f756e742073686f756c642062652065786163746c79206d6960008201527f6e74696e6720636f737400000000000000000000000000000000000000000000602082015250565b6000614f4f602a83613c43565b9150614f5a82614ef3565b604082019050919050565b60006020820190508181036000830152614f7e81614f42565b9050919050565b7f504e533a2054686973206e616d652063616e6e6f74206265206d696e7465642060008201527f6f72206163636f756e742069732062616e6e6564000000000000000000000000602082015250565b6000614fe1603483613c43565b9150614fec82614f85565b604082019050919050565b6000602082019050818103600083015261501081614fd4565b9050919050565b6000615023828b614873565b915061502f828a614873565b915061503b8289614873565b91506150478288614873565b91506150538287614873565b915061505f8286614873565b915061506b8285614873565b91506150778284614873565b91508190509998505050505050505050565b60006150958288614873565b91506150a18287614873565b91506150ad8286614873565b91506150b98285614873565b91506150c58284614873565b91508190509695505050505050565b7f7b226e616d65223a202200000000000000000000000000000000000000000000600082015250565b600061510a600a83614868565b9150615115826150d4565b600a82019050919050565b7f222c20226465736372697074696f6e223a202200000000000000000000000000600082015250565b6000615156601383614868565b915061516182615120565b601382019050919050565b7f222c2022657468657265756d5f61646472657373223a20220000000000000000600082015250565b60006151a2601883614868565b91506151ad8261516c565b601882019050919050565b7f222c2022626974636f696e5f61646472657373223a2022000000000000000000600082015250565b60006151ee601783614868565b91506151f9826151b8565b601782019050919050565b7f222c2022656d61696c223a202200000000000000000000000000000000000000600082015250565b600061523a600d83614868565b915061524582615204565b600d82019050919050565b7f222c202275726c223a2022000000000000000000000000000000000000000000600082015250565b6000615286600b83614868565b915061529182615250565b600b82019050919050565b7f222c2022736f6369616c223a2022000000000000000000000000000000000000600082015250565b60006152d2600e83614868565b91506152dd8261529c565b600e82019050919050565b7f222c2022696d616765223a2022646174613a696d6167652f7376672b786d6c3b60008201527f6261736536342c00000000000000000000000000000000000000000000000000602082015250565b6000615344602783614868565b915061534f826152e8565b602782019050919050565b7f222c20226c6f676f223a20220000000000000000000000000000000000000000600082015250565b6000615390600c83614868565b915061539b8261535a565b600c82019050919050565b7f222c20226261636b67726f756e64223a20220000000000000000000000000000600082015250565b60006153dc601283614868565b91506153e7826153a6565b601282019050919050565b7f222c2022636f6c6f72223a202200000000000000000000000000000000000000600082015250565b6000615428600d83614868565b9150615433826153f2565b600d82019050919050565b7f227d000000000000000000000000000000000000000000000000000000000000600082015250565b6000615474600283614868565b915061547f8261543e565b600282019050919050565b6000615495826150fd565b91506154a1828f614873565b91506154ac82614d5d565b91506154b8828e614873565b91506154c382615149565b91506154cf828d614873565b91506154da82615195565b91506154e6828c614873565b91506154f1826151e1565b91506154fd828b614873565b91506155088261522d565b9150615514828a614873565b915061551f82615279565b915061552b8289614873565b9150615536826152c5565b91506155428288614873565b915061554d82615337565b91506155598287614873565b915061556482615383565b91506155708286614873565b915061557b826153cf565b91506155878285614873565b91506155928261541b565b915061559e8284614873565b91506155a982615467565b91508190509d9c50505050505050505050505050565b7f646174613a6170706c69636174696f6e2f6a736f6e3b6261736536342c000000600082015250565b60006155f5601d83614868565b9150615600826155bf565b601d82019050919050565b6000615616826155e8565b91506156228284614873565b915081905092915050565b7f4f776e61626c653a206e6577206f776e657220697320746865207a65726f206160008201527f6464726573730000000000000000000000000000000000000000000000000000602082015250565b6000615689602683613c43565b91506156948261562d565b604082019050919050565b600060208201905081810360008301526156b88161567c565b9050919050565b7f4552433732313a206f70657261746f7220717565727920666f72206e6f6e657860008201527f697374656e7420746f6b656e0000000000000000000000000000000000000000602082015250565b600061571b602c83613c43565b9150615726826156bf565b604082019050919050565b6000602082019050818103600083015261574a8161570e565b9050919050565b7f4552433732313a207472616e73666572206f6620746f6b656e2074686174206960008201527f73206e6f74206f776e0000000000000000000000000000000000000000000000602082015250565b60006157ad602983613c43565b91506157b882615751565b604082019050919050565b600060208201905081810360008301526157dc816157a0565b9050919050565b7f4552433732313a207472616e7366657220746f20746865207a65726f2061646460008201527f7265737300000000000000000000000000000000000000000000000000000000602082015250565b600061583f602483613c43565b915061584a826157e3565b604082019050919050565b6000602082019050818103600083015261586e81615832565b9050919050565b600061588082613cf3565b915061588b83613cf3565b92508282101561589e5761589d614c50565b5b828203905092915050565b60006158b482613cf3565b91506158bf83613cf3565b9250827fffffffffffffffffffffffffffffffffffffffffffffffffffffffffffffffff038211156158f4576158f3614c50565b5b828201905092915050565b7f4552433732313a206d696e7420746f20746865207a65726f2061646472657373600082015250565b6000615935602083613c43565b9150615940826158ff565b602082019050919050565b6000602082019050818103600083015261596481615928565b9050919050565b7f4552433732313a20746f6b656e20616c7265616479206d696e74656400000000600082015250565b60006159a1601c83613c43565b91506159ac8261596b565b602082019050919050565b600060208201905081810360008301526159d081615994565b9050919050565b7f4552433732313a207472616e7366657220746f206e6f6e20455243373231526560008201527f63656976657220696d706c656d656e7465720000000000000000000000000000602082015250565b6000615a33603283613c43565b9150615a3e826159d7565b604082019050919050565b60006020820190508181036000830152615a6281615a26565b9050919050565b7f4e487b7100000000000000000000000000000000000000000000000000000000600052601260045260246000fd5b6000615aa382613cf3565b9150615aae83613cf3565b925082615abe57615abd615a69565b5b828204905092915050565b6000615ad482613cf3565b9150615adf83613cf3565b9250817fffffffffffffffffffffffffffffffffffffffffffffffffffffffffffffffff0483118215151615615b1857615b17614c50565b5b828202905092915050565b600081519050919050565b600082825260208201905092915050565b6000615b4a82615b23565b615b548185615b2e565b9350615b64818560208601613c54565b615b6d81613c87565b840191505092915050565b6000608082019050615b8d6000830187613d88565b615b9a6020830186613d88565b615ba76040830185613e1e565b8181036060830152615bb98184615b3f565b905095945050505050565b600081519050615bd381613ba9565b92915050565b600060208284031215615bef57615bee613b73565b5b6000615bfd84828501615bc4565b9150509291505056fe3b20666f6e742d66616d696c793a206d6f6e6f73706163653b20666f6e742d73697a653a20313470783b207d3c2f7374796c653e3c726563742077696474683d223130302522206865696768743d2231303025222066696c6c3d223c7465787420783d2231302220793d223339302220636c6173733d2262617365223e4e414d453a203c73766720786d6c6e733d22687474703a2f2f7777772e77332e6f72672f323030302f73766722207072657365727665417370656374526174696f3d22784d696e594d696e206d656574222076696577426f783d223020302035303020353030223e3c7374796c653e2e62617365207b2066696c6c3a203c2f746578743e3c7465787420783d2231302220793d223435302220636c6173733d2262617365223e452d4d41494c3a203c2f746578743e3c7465787420783d2231302220793d223433302220636c6173733d2262617365223e4254433a204142434445464748494a4b4c4d4e4f505152535455565758595a6162636465666768696a6b6c6d6e6f707172737475767778797a303132333435363738392b2f3c2f746578743e3c7465787420783d2231302220793d223439302220636c6173733d2262617365223e534f4349414c3a2068747470732e2f2f697066732e696f2f697066732f6261666b726569626578627272796964707569786b6972327a706773616c7770373736736a62683575786f7278357776796c6363626962797665613c2f746578743e3c7465787420783d2231302220793d223437302220636c6173733d2262617365223e55524c3a203c2f746578743e3c7465787420783d2231302220793d223431302220636c6173733d2262617365223e4554483a20a2646970667358221220221b5540a25226d19e75a447b43b587ea3d565a68abdf8d85f696d3b7222c37b64736f6c634300080a0033",
  "immutableReferences": {},
  "source": "// SPDX-License-Identifier: MIT\npragma solidity ^0.8.6;\n\nimport \"@openzeppelin/contracts/access/Ownable.sol\";\nimport \"@openzeppelin/contracts/token/ERC721/ERC721.sol\";\nimport \"@openzeppelin/contracts/utils/Counters.sol\";\nimport \"@openzeppelin/contracts/utils/Strings.sol\";\nimport \"./Base64.sol\";\n\n/**\n * @title Polygon Identities\n * Polygon Identities - A name service manager for Polygon\n */\n\ncontract PolygonME is ERC721, Ownable {\n    uint256 private _value;\n    using Counters for Counters.Counter;\n    Counters.Counter private _tokenIdCounter;\n    uint256 minting_price_short = 10 ether;\n    uint256 minting_price_medium = 5 ether;\n    uint256 minting_price_long = 2 ether;\n    \n    struct Name {\n        address eth_address;\n        string name;\n        string tld;\n        string ethereum_address;\n        string bitcoin_address;\n        string email;\n        string url;\n        string social;\n        string background;\n        string color;\n        string logo;\n        string description;\n    }\n\n    mapping(string => uint256) public _nameToTokenId;\n    mapping(uint256 => Name) private _namesCollection;\n    mapping(address => bool) private _bannedAccounts;\n    mapping(string => bool) private _blackList;\n    mapping(string => bool) public _tlds;\n    mapping(string => string) private _base_logos;\n    mapping(string => string) private _base_descriptions;\n\n    constructor() ERC721(\"PolygonME\", \"ME\") {}\n\n    function totalSupply() public view returns (uint256) {\n        return _tokenIdCounter.current();\n    }\n\n    function contractURI() public pure returns (string memory) {\n        return \"https.//ipfs.io/ipfs/bafkreibexbrryidpuixkir2zpgsalwp776sjbh5uxorx5wvylccbibyvea\";\n    }\n\n    function tokensOfOwner(address _owner) external view returns(uint256[] memory ownerTokens) {\n        uint256 tokenCount = balanceOf(_owner);\n        if (tokenCount == 0) {\n            // Return an empty array\n            return new uint256[](0);\n        } else {\n            uint256[] memory result = new uint256[](tokenCount);\n            uint256 totalTkns = totalSupply();\n            uint256 resultIndex = 0;\n            uint256 tnkId;\n\n            for (tnkId = 1; tnkId <= totalTkns; tnkId++) {\n                if (ownerOf(tnkId) == _owner) {\n                    result[resultIndex] = tnkId;\n                    resultIndex++;\n                }\n            }\n\n            return result;\n        }\n    }\n\n    function returnNameID(string memory _name) public view returns (uint256) {\n        return _nameToTokenId[_name];\n    }\n\n    function getAddressByName(string memory _name) public view returns (address) {\n        uint256 tknId = _nameToTokenId[_name];\n        return _namesCollection[tknId].eth_address;\n    }\n    \n    function getAddressById(uint256 tknId) public view returns (address) {\n        return _namesCollection[tknId].eth_address;\n    }\n    \n    function tokenURI(uint256 tokenId) public override view returns (string memory) {\n        string[19] memory parts;\n        Name memory name = _namesCollection[tokenId];\n        parts[0] = '<svg xmlns=\"http://www.w3.org/2000/svg\" preserveAspectRatio=\"xMinYMin meet\" viewBox=\"0 0 500 500\"><style>.base { fill: ';\n        parts[1] = name.color;\n        parts[2] = '; font-family: monospace; font-size: 14px; }</style><rect width=\"100%\" height=\"100%\" fill=\"';\n        parts[3] = name.background;\n        parts[4] = '\" />';\n        parts[5] = name.logo;\n        parts[6] = '<text x=\"10\" y=\"390\" class=\"base\">NAME: ';\n        parts[7] = string(abi.encodePacked(name.name, '.', name.tld));\n        parts[8] = '</text><text x=\"10\" y=\"410\" class=\"base\">ETH: ';\n        parts[9] = name.ethereum_address;\n        parts[10] = '</text><text x=\"10\" y=\"430\" class=\"base\">BTC: ';\n        parts[11] = name.bitcoin_address;\n        parts[12] = '</text><text x=\"10\" y=\"450\" class=\"base\">E-MAIL: ';\n        parts[13] = name.email;\n        parts[14] = '</text><text x=\"10\" y=\"470\" class=\"base\">URL: ';\n        parts[15] = name.url;\n        parts[16] = '</text><text x=\"10\" y=\"490\" class=\"base\">SOCIAL: ';\n        parts[17] = name.social;\n        parts[18] = '</text></svg>';\n\n        string memory output = string(abi.encodePacked(parts[0], parts[1], parts[2], parts[3], parts[4], parts[5], parts[6], parts[7]));\n        output = string(abi.encodePacked(output, parts[8], parts[9], parts[10], parts[11], parts[12], parts[13], parts[14]));\n        output = string(abi.encodePacked(output, parts[15], parts[16], parts[17], parts[18]));\n\n        string memory json = Base64.encode(bytes(string(abi.encodePacked('{\"name\": \"', name.name, '.',name.tld,'\", \"description\": \"', name.description, '\", \"ethereum_address\": \"',name.ethereum_address,'\", \"bitcoin_address\": \"',name.bitcoin_address,'\", \"email\": \"',name.email,'\", \"url\": \"',name.url,'\", \"social\": \"',name.social,'\", \"image\": \"data:image/svg+xml;base64,', Base64.encode(bytes(output)), '\", \"logo\": \"',Base64.encode(bytes(name.logo)),'\", \"background\": \"',name.background,'\", \"color\": \"',name.color,'\"}'))));\n        output = string(abi.encodePacked('data:application/json;base64,', json));\n\n        return output;\n    }\n\n    function canMint(string memory str, address sender) internal view returns (bool) {\n\t\tbytes memory bStr = bytes(str);\n        bool _itIs = true;\n        // Check if contains uppercase or spaces\n\t\tfor (uint i = 0; i < bStr.length; i++) {\n\t\t\tif ((bStr[i] >= 0x41) && (bStr[i] <= 0x5A)) {\n                _itIs = false;\n\t\t\t} else if ((bStr[i] < 0x61 || bStr[i] > 0x7a) && bStr[i] != 0x2d){\n                if(bStr[i] < 0x30 || bStr[i] > 0x39){\n                    _itIs = false;\n                }\n            }\n\n\t\t}\n        // Check if name is blacklisted\n        if(_itIs && _blackList[str] == true){\n            _itIs = false;\n        }\n        // Check if account is banned\n        if(_itIs && _bannedAccounts[sender] == true){\n            _itIs = false;\n        }\n\t\treturn _itIs;\n\t}\n\n    function mintName(string memory name, string memory tld) public payable {\n        uint length = bytes(name).length;\n        uint256 minting_price = minting_price_short;\n        if(length > 5 && length <= 10){\n            minting_price = minting_price_medium;\n        }\n        if (length > 10) {\n            minting_price = minting_price_long;\n        }\n        string memory final_name = string(abi.encodePacked(name,'.',tld));\n        require(length > 0, \"PNS: String can't be void\");\n        require(_tlds[tld], 'PNS: This TLD is not allowed');\n        require(_nameToTokenId[final_name] == 0, 'PNS: This name already exists');\n        require(msg.value == minting_price, 'PNS: Amount should be exactly minting cost');\n        require(canMint(name, msg.sender), 'PNS: This name cannot be minted or account is banned');\n        _tokenIdCounter.increment();\n        uint256 newTokenId = _tokenIdCounter.current();\n        _nameToTokenId[final_name] = newTokenId;\n        _namesCollection[newTokenId].background = \"#8247E5\";\n        _namesCollection[newTokenId].color = \"#ffffff\";\n        _namesCollection[newTokenId].logo = _base_logos[tld];\n        _namesCollection[newTokenId].description = _base_descriptions[tld];\n        _namesCollection[newTokenId].name = name;\n        _namesCollection[newTokenId].tld = tld;\n        _mint(msg.sender, newTokenId);\n    }\n\n    function fixDetails(\n        uint256 tokenId,\n        address eth_address,\n        string memory ethereum_address,\n        string memory bitcoin_address,\n        string memory email,\n        string memory url,\n        string memory social,\n        string memory background,\n        string memory color,\n        string memory logo,\n        string memory description\n    ) public {\n        require(msg.sender == ownerOf(tokenId) || msg.sender == owner(), 'PNS: You must own the name');\n        require(_bannedAccounts[msg.sender] == false, \"PNS: Account banned\");\n        _namesCollection[tokenId].eth_address = eth_address;\n        _namesCollection[tokenId].ethereum_address = ethereum_address;\n        _namesCollection[tokenId].bitcoin_address = bitcoin_address;\n        _namesCollection[tokenId].email = email;\n        _namesCollection[tokenId].url = url;\n        _namesCollection[tokenId].social = social;\n        _namesCollection[tokenId].background = background;\n        _namesCollection[tokenId].color = color;\n        _namesCollection[tokenId].logo = logo;\n        _namesCollection[tokenId].description = description;\n    }\n\n    function fixPrice(uint256 _what, uint256 price) public onlyOwner {\n        if(_what == 0){\n            minting_price_short = price;\n        }else if(_what == 1){\n            minting_price_medium = price;\n        }else if(_what == 2){\n            minting_price_long = price;\n        }\n    }\n\n    function withdrawMatic() public onlyOwner {\n        uint256 balance = address(this).balance;\n        require(balance > 0, 'PNS: Nothing to withdraw!');\n        payable(msg.sender).transfer(balance);\n    }\n\n    function changeAdminLists(address _address, string memory _string1, string memory _string2, uint256 _what, bool _state) public onlyOwner {\n        if(_what == 0){\n            _bannedAccounts[_address] = _state;\n        } else if (_what == 1) {\n            _blackList[_string1] = _state;\n        } else if (_what == 2) {\n             _tlds[_string1] = _state;\n        } else if (_what == 3) {\n             _base_logos[_string1] = _string2;\n        } else if (_what == 4) {\n             _base_descriptions[_string1] = _string2;\n        }\n    }\n\n}\n",
  "sourcePath": "/home/turinglabs/GIT/NFT-STUDIO/polygon-id/core-contract/contracts/PolygonME.sol",
  "compiler": {
    "name": "solc",
    "version": "0.8.10+commit.fc410830.Emscripten.clang"
  },
  "schemaVersion": "3.3.4",
  "updatedAt": "2021-11-17T03:15:56.683Z",
  "networkType": "ethereum",
  "devdoc": {
    "kind": "dev",
    "methods": {
      "approve(address,uint256)": {
        "details": "See {IERC721-approve}."
      },
      "balanceOf(address)": {
        "details": "See {IERC721-balanceOf}."
      },
      "getApproved(uint256)": {
        "details": "See {IERC721-getApproved}."
      },
      "isApprovedForAll(address,address)": {
        "details": "See {IERC721-isApprovedForAll}."
      },
      "name()": {
        "details": "See {IERC721Metadata-name}."
      },
      "owner()": {
        "details": "Returns the address of the current owner."
      },
      "ownerOf(uint256)": {
        "details": "See {IERC721-ownerOf}."
      },
      "renounceOwnership()": {
        "details": "Leaves the contract without owner. It will not be possible to call `onlyOwner` functions anymore. Can only be called by the current owner. NOTE: Renouncing ownership will leave the contract without an owner, thereby removing any functionality that is only available to the owner."
      },
      "safeTransferFrom(address,address,uint256)": {
        "details": "See {IERC721-safeTransferFrom}."
      },
      "safeTransferFrom(address,address,uint256,bytes)": {
        "details": "See {IERC721-safeTransferFrom}."
      },
      "setApprovalForAll(address,bool)": {
        "details": "See {IERC721-setApprovalForAll}."
      },
      "supportsInterface(bytes4)": {
        "details": "See {IERC165-supportsInterface}."
      },
      "symbol()": {
        "details": "See {IERC721Metadata-symbol}."
      },
      "tokenURI(uint256)": {
        "details": "See {IERC721Metadata-tokenURI}."
      },
      "transferFrom(address,address,uint256)": {
        "details": "See {IERC721-transferFrom}."
      },
      "transferOwnership(address)": {
        "details": "Transfers ownership of the contract to a new account (`newOwner`). Can only be called by the current owner."
      }
    },
    "title": "Polygon Identities Polygon Identities - A name service manager for Polygon",
    "version": 1
  },
  "userdoc": {
    "kind": "user",
    "methods": {},
    "version": 1
  }
}